{
  "abi": [
    {
      "inputs": [],
      "stateMutability": "nonpayable",
      "type": "constructor"
    },
    {
      "inputs": [
        {
          "internalType": "address",
          "name": "target",
          "type": "address"
        }
      ],
      "name": "AddressEmptyCode",
      "type": "error"
    },
    {
      "inputs": [
        {
          "internalType": "address",
          "name": "implementation",
          "type": "address"
        }
      ],
      "name": "ERC1967InvalidImplementation",
      "type": "error"
    },
    {
      "inputs": [],
      "name": "ERC1967NonPayable",
      "type": "error"
    },
    {
      "inputs": [],
      "name": "FailedInnerCall",
      "type": "error"
    },
    {
      "inputs": [],
      "name": "InvalidInitialization",
      "type": "error"
    },
    {
      "inputs": [
        {
          "internalType": "uint256",
          "name": "value",
          "type": "uint256"
        },
        {
          "internalType": "uint256",
          "name": "price",
          "type": "uint256"
        }
      ],
      "name": "NotEnoughETH",
      "type": "error"
    },
    {
      "inputs": [
        {
          "internalType": "uint256",
          "name": "value",
          "type": "uint256"
        },
        {
          "internalType": "uint256",
          "name": "price",
          "type": "uint256"
        }
      ],
      "name": "NotEnoughFMT",
      "type": "error"
    },
    {
      "inputs": [],
      "name": "NotInitializing",
      "type": "error"
    },
    {
      "inputs": [
        {
          "internalType": "address",
          "name": "player",
          "type": "address"
        }
      ],
      "name": "NotOwnAnyLand",
      "type": "error"
    },
    {
      "inputs": [
        {
          "internalType": "address",
          "name": "owner",
          "type": "address"
        }
      ],
      "name": "OwnableInvalidOwner",
      "type": "error"
    },
    {
      "inputs": [
        {
          "internalType": "address",
          "name": "account",
          "type": "address"
        }
      ],
      "name": "OwnableUnauthorizedAccount",
      "type": "error"
    },
    {
      "inputs": [
        {
          "internalType": "address",
          "name": "from",
          "type": "address"
        },
        {
          "internalType": "address",
          "name": "to",
          "type": "address"
        },
        {
          "internalType": "uint256",
          "name": "amount",
          "type": "uint256"
        }
      ],
      "name": "TransferFailed",
      "type": "error"
    },
    {
      "inputs": [],
      "name": "UUPSUnauthorizedCallContext",
      "type": "error"
    },
    {
      "inputs": [
        {
          "internalType": "bytes32",
          "name": "slot",
          "type": "bytes32"
        }
      ],
      "name": "UUPSUnsupportedProxiableUUID",
      "type": "error"
    },
    {
      "anonymous": false,
      "inputs": [
        {
          "indexed": false,
          "internalType": "uint64",
          "name": "version",
          "type": "uint64"
        }
      ],
      "name": "Initialized",
      "type": "event"
    },
    {
      "anonymous": false,
      "inputs": [
        {
          "indexed": true,
          "internalType": "address",
          "name": "previousOwner",
          "type": "address"
        },
        {
          "indexed": true,
          "internalType": "address",
          "name": "newOwner",
          "type": "address"
        }
      ],
      "name": "OwnershipTransferred",
      "type": "event"
    },
    {
      "anonymous": false,
      "inputs": [
        {
          "indexed": true,
          "internalType": "address",
          "name": "implementation",
          "type": "address"
        }
      ],
      "name": "Upgraded",
      "type": "event"
    },
    {
      "stateMutability": "payable",
      "type": "fallback"
    },
    {
      "inputs": [],
      "name": "UPGRADE_INTERFACE_VERSION",
      "outputs": [
        {
          "internalType": "string",
          "name": "",
          "type": "string"
        }
      ],
      "stateMutability": "view",
      "type": "function"
    },
    {
      "inputs": [],
      "name": "allOwners",
      "outputs": [
        {
          "internalType": "address[]",
          "name": "",
          "type": "address[]"
        },
        {
          "internalType": "uint16",
          "name": "",
          "type": "uint16"
        }
      ],
      "stateMutability": "view",
      "type": "function"
    },
    {
      "inputs": [],
      "name": "buyLand",
      "outputs": [],
      "stateMutability": "payable",
      "type": "function"
    },
    {
      "inputs": [
        {
          "internalType": "enum Props",
          "name": "props",
          "type": "uint8"
        }
      ],
      "name": "buyProps",
      "outputs": [],
      "stateMutability": "payable",
      "type": "function"
    },
    {
      "inputs": [
        {
          "internalType": "enum Props",
          "name": "props",
          "type": "uint8"
        }
      ],
      "name": "buyPropsWithFMP",
      "outputs": [],
      "stateMutability": "nonpayable",
      "type": "function"
    },
    {
      "inputs": [],
      "name": "claimReward",
      "outputs": [],
      "stateMutability": "nonpayable",
      "type": "function"
    },
    {
      "inputs": [],
      "name": "fmp",
      "outputs": [
        {
          "internalType": "contract FomopolyToken",
          "name": "",
          "type": "address"
        }
      ],
      "stateMutability": "view",
      "type": "function"
    },
    {
      "inputs": [
        {
          "internalType": "uint16",
          "name": "landId",
          "type": "uint16"
        }
      ],
      "name": "getLand",
      "outputs": [
        {
          "internalType": "uint256",
          "name": "",
          "type": "uint256"
        },
        {
          "internalType": "uint256",
          "name": "",
          "type": "uint256"
        },
        {
          "internalType": "uint256",
          "name": "",
          "type": "uint256"
        },
        {
          "internalType": "address",
          "name": "",
          "type": "address"
        }
      ],
      "stateMutability": "view",
      "type": "function"
    },
    {
      "inputs": [
        {
          "internalType": "uint16",
          "name": "landId",
          "type": "uint16"
        }
      ],
      "name": "getLandPrice",
      "outputs": [
        {
          "internalType": "uint256",
          "name": "",
          "type": "uint256"
        }
      ],
      "stateMutability": "view",
      "type": "function"
    },
    {
      "inputs": [
        {
          "internalType": "address",
          "name": "player",
          "type": "address"
        }
      ],
      "name": "getPlayer",
      "outputs": [
        {
          "internalType": "uint16",
          "name": "",
          "type": "uint16"
        },
        {
          "internalType": "uint16",
          "name": "",
          "type": "uint16"
        },
        {
          "internalType": "uint256",
          "name": "",
          "type": "uint256"
        }
      ],
      "stateMutability": "view",
      "type": "function"
    },
    {
      "inputs": [],
      "name": "getPool",
      "outputs": [
        {
          "internalType": "uint256",
          "name": "",
          "type": "uint256"
        },
        {
          "internalType": "uint256",
          "name": "",
          "type": "uint256"
        }
      ],
      "stateMutability": "view",
      "type": "function"
    },
    {
      "inputs": [
        {
          "internalType": "enum NumberType",
          "name": "numberType",
          "type": "uint8"
        }
      ],
      "name": "getRandomNumber",
      "outputs": [
        {
          "internalType": "uint16",
          "name": "",
          "type": "uint16"
        }
      ],
      "stateMutability": "view",
      "type": "function"
    },
    {
      "inputs": [
        {
          "internalType": "address",
          "name": "_initialOwner",
          "type": "address"
        },
        {
          "internalType": "address",
          "name": "_fmp",
          "type": "address"
        }
      ],
      "name": "initialize",
      "outputs": [],
      "stateMutability": "nonpayable",
      "type": "function"
    },
    {
      "inputs": [
        {
          "internalType": "uint16",
          "name": "",
          "type": "uint16"
        }
      ],
      "name": "lands",
      "outputs": [
        {
          "internalType": "uint256",
          "name": "price",
          "type": "uint256"
        },
        {
          "internalType": "uint256",
          "name": "lastBoughtAt",
          "type": "uint256"
        },
        {
          "internalType": "uint256",
          "name": "protectedTil",
          "type": "uint256"
        },
        {
          "internalType": "address",
          "name": "owner",
          "type": "address"
        }
      ],
      "stateMutability": "view",
      "type": "function"
    },
    {
      "inputs": [],
      "name": "maxLands",
      "outputs": [
        {
          "internalType": "uint16",
          "name": "",
          "type": "uint16"
        }
      ],
      "stateMutability": "view",
      "type": "function"
    },
    {
      "inputs": [],
      "name": "move",
      "outputs": [
        {
          "internalType": "uint16",
          "name": "",
          "type": "uint16"
        }
      ],
      "stateMutability": "nonpayable",
      "type": "function"
    },
    {
      "inputs": [],
      "name": "owner",
      "outputs": [
        {
          "internalType": "address",
          "name": "",
          "type": "address"
        }
      ],
      "stateMutability": "view",
      "type": "function"
    },
    {
      "inputs": [
        {
          "internalType": "address",
          "name": "",
          "type": "address"
        }
      ],
      "name": "players",
      "outputs": [
        {
          "internalType": "uint16",
          "name": "position",
          "type": "uint16"
        },
        {
          "internalType": "uint16",
          "name": "landAmount",
          "type": "uint16"
        },
        {
          "internalType": "uint256",
          "name": "rewardDebt",
          "type": "uint256"
        }
      ],
      "stateMutability": "view",
      "type": "function"
    },
    {
      "inputs": [],
      "name": "pool",
      "outputs": [
        {
          "internalType": "uint256",
          "name": "lastRewardBlock",
          "type": "uint256"
        },
        {
          "internalType": "uint256",
          "name": "accRewardPerShare",
          "type": "uint256"
        }
      ],
      "stateMutability": "view",
      "type": "function"
    },
    {
      "inputs": [],
      "name": "proxiableUUID",
      "outputs": [
        {
          "internalType": "bytes32",
          "name": "",
          "type": "bytes32"
        }
      ],
      "stateMutability": "view",
      "type": "function"
    },
    {
      "inputs": [],
      "name": "renounceOwnership",
      "outputs": [],
      "stateMutability": "nonpayable",
      "type": "function"
    },
    {
      "inputs": [
        {
          "internalType": "uint256",
          "name": "_descAmount",
          "type": "uint256"
        }
      ],
      "name": "setDecreaseAmount",
      "outputs": [],
      "stateMutability": "nonpayable",
      "type": "function"
    },
    {
      "inputs": [
        {
          "internalType": "uint256",
          "name": "_descInterval",
          "type": "uint256"
        }
      ],
      "name": "setDecreaseInterval",
      "outputs": [],
      "stateMutability": "nonpayable",
      "type": "function"
    },
    {
      "inputs": [
        {
          "internalType": "uint256",
          "name": "_incrAmout",
          "type": "uint256"
        }
      ],
      "name": "setIncreaseAmount",
      "outputs": [],
      "stateMutability": "nonpayable",
      "type": "function"
    },
    {
      "inputs": [
        {
          "internalType": "uint256",
          "name": "_lstPrice",
          "type": "uint256"
        }
      ],
      "name": "setLowestPrice",
      "outputs": [],
      "stateMutability": "nonpayable",
      "type": "function"
    },
    {
      "inputs": [
        {
          "internalType": "uint16",
          "name": "_maxLands",
          "type": "uint16"
        }
      ],
      "name": "setMaxLands",
      "outputs": [],
      "stateMutability": "nonpayable",
      "type": "function"
    },
    {
      "inputs": [
        {
          "internalType": "address",
          "name": "player",
          "type": "address"
        },
        {
          "internalType": "uint16",
          "name": "position",
          "type": "uint16"
        }
      ],
      "name": "setPosition",
      "outputs": [],
      "stateMutability": "nonpayable",
      "type": "function"
    },
    {
      "inputs": [
        {
          "internalType": "uint256",
          "name": "_priceEth",
          "type": "uint256"
        }
      ],
      "name": "setPropPriceEth",
      "outputs": [],
      "stateMutability": "nonpayable",
      "type": "function"
    },
    {
      "inputs": [
        {
          "internalType": "address",
          "name": "newOwner",
          "type": "address"
        }
      ],
      "name": "transferOwnership",
      "outputs": [],
      "stateMutability": "nonpayable",
      "type": "function"
    },
    {
      "inputs": [
        {
          "internalType": "uint256",
          "name": "_amount",
          "type": "uint256"
        }
      ],
      "name": "updatePool",
      "outputs": [],
      "stateMutability": "nonpayable",
      "type": "function"
    },
    {
      "inputs": [
        {
          "internalType": "address",
          "name": "newImplementation",
          "type": "address"
        },
        {
          "internalType": "bytes",
          "name": "data",
          "type": "bytes"
        }
      ],
      "name": "upgradeToAndCall",
      "outputs": [],
      "stateMutability": "payable",
      "type": "function"
    },
    {
      "inputs": [],
      "name": "withdraw",
      "outputs": [],
      "stateMutability": "nonpayable",
      "type": "function"
    },
    {
      "inputs": [],
      "name": "withdrawFMP",
      "outputs": [],
      "stateMutability": "nonpayable",
      "type": "function"
    },
    {
      "stateMutability": "payable",
      "type": "receive"
    }
  ],
  "bytecode": {
    "object": "0x60a06040523060805234801561001457600080fd5b5061001d610022565b6100d4565b7ff0c57e16840df040f15088dc2f81fe391c3923bec73e23a9662efc9c229c6a00805468010000000000000000900460ff16156100725760405163f92ee8a960e01b815260040160405180910390fd5b80546001600160401b03908116146100d15780546001600160401b0319166001600160401b0390811782556040519081527fc7f505b2f371ae2175ee4913f4499e1f2633a7b5936321eed1cdaeb6115181d29060200160405180910390a15b50565b608051611fa16100fd60003960008181611692015281816116bb01526118010152611fa16000f3fe6080604052600436106101d95760003560e01c806351eb05a611610101578063a12a52dc1161009a578063e2eb41ff1161006c578063e2eb41ff14610614578063e5123c4d14610657578063eacbccc114610672578063f2fde38b146106bd578063fddc18e2146106dd57005b8063a12a52dc1461057e578063ad3cb1cc146105a1578063b88a802f146105df578063d5a2bab9146105f457005b80636746e595116100d35780636746e595146104f7578063715018a61461050c578063780d567f146105215780638da5cb5b1461054157005b806351eb05a61461043557806352d1902d146104555780635530dfb61461046a5780635c12cd4b1461048a57005b806329b2e1c7116101735780633ec48a2e116101455780633ec48a2e146103e5578063469327dd146103fa578063485cc955146104025780634f1ef2861461042257005b806329b2e1c71461035857806337eacbe71461037857806339d6b9b8146103b05780633ccfd60b146103d057005b806306eb75e4116101ac57806306eb75e4146102dc5780630f6ed8ea1461030a57806312be64631461032a57806316f0115b1461033d57005b806299f16d146101e2578063026b1d5f14610260578063035e75c1146102895780630651f005146102a957005b366101e057005b005b3480156101ee57600080fd5b506102326101fd366004611ae8565b61ffff16600090815260076020526040902080546001820154600283015460039093015491939092916001600160a01b031690565b604080519485526020850193909352918301526001600160a01b031660608201526080015b60405180910390f35b34801561026c57600080fd5b50600954600a545b60408051928352602083019190915201610257565b34801561029557600080fd5b506101e06102a4366004611b03565b6106fd565b3480156102b557600080fd5b506102c96102c4366004611b29565b61070a565b60405161ffff9091168152602001610257565b3480156102e857600080fd5b506102fc6102f7366004611ae8565b610891565b604051908152602001610257565b34801561031657600080fd5b506101e0610325366004611b03565b610901565b6101e0610338366004611b29565b61090e565b34801561034957600080fd5b50600954600a54610274919082565b34801561036457600080fd5b506101e0610373366004611b29565b6109a3565b34801561038457600080fd5b50600654610398906001600160a01b031681565b6040516001600160a01b039091168152602001610257565b3480156103bc57600080fd5b506101e06103cb366004611b03565b610c00565b3480156103dc57600080fd5b506101e0610c0d565b3480156103f157600080fd5b506102c9610c87565b6101e0610cdf565b34801561040e57600080fd5b506101e061041d366004611b5d565b610fc2565b6101e0610430366004611ba6565b6111b6565b34801561044157600080fd5b506101e0610450366004611b03565b6111d5565b34801561046157600080fd5b506102fc611218565b34801561047657600080fd5b506101e0610485366004611c68565b611235565b34801561049657600080fd5b506104d66104a5366004611c92565b6001600160a01b03166000908152600860205260409020805460019091015461ffff80831693620100009093041691565b6040805161ffff948516815293909216602084015290820152606001610257565b34801561050357600080fd5b506101e061127f565b34801561051857600080fd5b506101e061136c565b34801561052d57600080fd5b506101e061053c366004611b03565b611380565b34801561054d57600080fd5b507f9016d09d72d40fdae2fd8ceac6b6234c7706214fd39c1cd1e609a0528c199300546001600160a01b0316610398565b34801561058a57600080fd5b5061059361138d565b604051610257929190611cad565b3480156105ad57600080fd5b506105d2604051806040016040528060058152602001640352e302e360dc1b81525081565b6040516102579190611d29565b3480156105eb57600080fd5b506101e06114a9565b34801561060057600080fd5b506101e061060f366004611b03565b6115ab565b34801561062057600080fd5b506104d661062f366004611c92565b6008602052600090815260409020805460019091015461ffff80831692620100009004169083565b34801561066357600080fd5b506000546102c99061ffff1681565b34801561067e57600080fd5b5061023261068d366004611ae8565b6007602052600090815260409020805460018201546002830154600390930154919290916001600160a01b031684565b3480156106c957600080fd5b506101e06106d8366004611c92565b6115b8565b3480156106e957600080fd5b506101e06106f8366004611ae8565b6115f3565b610705611613565b600255565b600080600642443360405160200161074793929190928352602083019190915260601b6bffffffffffffffffffffffff1916604082015260540190565b6040516020818303038152906040528051906020012060001c61076a9190611d72565b610775906001611d9c565b9050600183600481111561078b5761078b611daf565b036107d15761079b600282611dc5565b61ffff166000036107cc578061ffff166006146107c2576107bd816001611de6565b6107c5565b60015b9392505050565b61088b565b60028360048111156107e5576107e5611daf565b0361081e576107f5600282611dc5565b61ffff16156107cc578061ffff16600114610815576107bd600182611e01565b60069392505050565b600383600481111561083257610832611daf565b036108545760038161ffff161161084957806107c5565b6107c5600382611e01565b600483600481111561086857610868611daf565b0361088b5760038161ffff16111561088057806107c5565b6107c5816003611de6565b92915050565b61ffff811660009081526007602052604081208054600182015480156108f9576002546000906108c18342611e1c565b6108cb9190611e2f565b9050600354816108db9190611e43565b6108e59084611e1c565b92506004548310156108f75760045492505b505b509392505050565b610909611613565b600555565b336000908152600860205260409020600554341015610952576005546040516317b1a39360e31b815234600482015260248101919091526044015b60405180910390fd5b600181600201600084600481111561096c5761096c611daf565b600481111561097d5761097d611daf565b8152602001908152602001600020600082825461099a9190611d9c565b90915550505050565b336000908152600860209081526040808320600654825163313ce56760e01b815292519194936001600160a01b039091169263313ce56792600480830193928290030181865afa1580156109fb573d6000803e3d6000fd5b505050506040513d601f19601f82011682018060405250810190610a1f9190611e5a565b610a2a906032611e7d565b6006546040516370a0823160e01b815233600482015260ff92909216925082916001600160a01b03909116906370a0823190602401602060405180830381865afa158015610a7c573d6000803e3d6000fd5b505050506040513d601f19601f82011682018060405250810190610aa09190611e99565b1015610b36576006546040516370a0823160e01b81523360048201526001600160a01b03909116906370a0823190602401602060405180830381865afa158015610aee573d6000803e3d6000fd5b505050506040513d601f19601f82011682018060405250810190610b129190611e99565b604051634e251e0160e11b8152600481019190915260248101829052604401610949565b6006546040516323b872dd60e01b81526001600160a01b03909116906323b872dd90610b6a90339030908690600401611eb2565b6020604051808303816000875af1158015610b89573d6000803e3d6000fd5b505050506040513d601f19601f82011682018060405250810190610bad9190611ed6565b506001826002016000856004811115610bc857610bc8611daf565b6004811115610bd957610bd9611daf565b81526020019081526020016000206000828254610bf69190611d9c565b9091555050505050565b610c08611613565b600355565b610c15611613565b604051600090339047908381818185875af1925050503d8060008114610c57576040519150601f19603f3d011682016040523d82523d6000602084013e610c5c565b606091505b5050905080610c84573033476040516317e3057d60e31b815260040161094993929190611eb2565b50565b600080610c94600061070a565b33600090815260086020526040812090548154929350909161ffff91821691610cbf91859116611de6565b610cc99190611dc5565b815461ffff191661ffff91909116179055919050565b3360009081526008602052604081205461ffff1690610cfd82610891565b905080341015610d29576040516317b1a39360e31b815234600482015260248101829052604401610949565b61ffff8216600090815260076020908152604080832060038101546001600160a01b0316808552600890935292209015801590610d6b57506001810154600a54115b15610e6f576001810154600a54600091610d8491611e1c565b60038401546040519192506000916001600160a01b039091169083908381818185875af1925050503d8060008114610dd8576040519150601f19603f3d011682016040523d82523d6000602084013e610ddd565b606091505b5050905080610e145760038401546040516317e3057d60e31b81526109499130916001600160a01b03909116908590600401611eb2565b82546001908490600290610e3390849062010000900461ffff16611e01565b82546101009290920a61ffff818102199093169183160217909155600a548554610e67935090916201000090910416611e43565b600184015550505b610e78346111d5565b336000908152600860205260409020805462010000900461ffff1615610f38576001810154600a54825460009291610eb99162010000900461ffff16611e43565b610ec39190611e1c565b604051909150600090339083908381818185875af1925050503d8060008114610f08576040519150601f19603f3d011682016040523d82523d6000602084013e610f0d565b606091505b5050905080610f35573033836040516317e3057d60e31b815260040161094993929190611eb2565b50505b600154610f459085611d9c565b8355426001808501919091556003840180546001600160a01b0319163317905581548290600290610f8290849061ffff6201000090910416611de6565b82546101009290920a61ffff818102199093169183160217909155600a548354610fb6935090916201000090910416611e43565b60019091015550505050565b7ff0c57e16840df040f15088dc2f81fe391c3923bec73e23a9662efc9c229c6a008054600160401b810460ff16159067ffffffffffffffff166000811580156110085750825b905060008267ffffffffffffffff1660011480156110255750303b155b905081158015611033575080155b156110515760405163f92ee8a960e01b815260040160405180910390fd5b845467ffffffffffffffff19166001178555831561107b57845460ff60401b1916600160401b1785555b6110848761166e565b61108c61167f565b6000805461ffff1916600a178155610258600255620186a06003819055600481905562989680600155600555600680546001600160a01b0389166001600160a01b03199091161790555b60005461ffff908116908216101561116657604080516080810182526004548152600060208083018281528385018381526060850184815261ffff881685526007909352949092209251835590516001830155915160028201559051600390910180546001600160a01b0319166001600160a01b039092169190911790558061115e81611ef8565b9150506110d6565b5083156111ad57845460ff60401b19168555604051600181527fc7f505b2f371ae2175ee4913f4499e1f2633a7b5936321eed1cdaeb6115181d29060200160405180910390a15b50505050505050565b6111be611687565b6111c78261172c565b6111d18282611734565b5050565b60095443116111e15750565b476000036111f0575043600955565b6000546112019061ffff1682611e2f565b600a5461120e9190611d9c565b600a555043600955565b60006112226117f6565b50600080516020611f4c83398151915290565b61123d611613565b60005461124e9061ffff1682611dc5565b6001600160a01b03929092166000908152600860205260409020805461ffff191661ffff9093169290921790915550565b611287611613565b6006546040516370a0823160e01b81523060048201526001600160a01b039091169063a9059cbb90339083906370a0823190602401602060405180830381865afa1580156112d9573d6000803e3d6000fd5b505050506040513d601f19601f820116820180604052508101906112fd9190611e99565b6040516001600160e01b031960e085901b1681526001600160a01b03909216600483015260248201526044016020604051808303816000875af1158015611348573d6000803e3d6000fd5b505050506040513d601f19601f82011682018060405250810190610c849190611ed6565b611374611613565b61137e600061183f565b565b611388611613565b600455565b6000805460609190819061ffff1667ffffffffffffffff8111156113b3576113b3611b90565b6040519080825280602002602001820160405280156113dc578160200160208202803683370190505b5090506000805b60005461ffff908116908216101561149f5761ffff81166000908152600760209081526040918290208251608081018452815481526001820154928101929092526002810154928201929092526003909101546001600160a01b0316606082018190521561148c578060600151848361ffff168151811061146657611466611f19565b6001600160a01b03909216602092830291909101909101528261148881611ef8565b9350505b508061149781611ef8565b9150506113e3565b5090939092509050565b336000908152600860205260408120805490916201000090910461ffff1690036114e857604051630974c63b60e21b8152336004820152602401610949565b6001810154600a548254600092916115099162010000900461ffff16611e43565b6115139190611e1c565b604051909150600090339083908381818185875af1925050503d8060008114611558576040519150601f19603f3d011682016040523d82523d6000602084013e61155d565b606091505b5050905080611585573033836040516317e3057d60e31b815260040161094993929190611eb2565b600a54835461159e919062010000900461ffff16611e43565b8360010181905550505050565b6115b3611613565b600155565b6115c0611613565b6001600160a01b0381166115ea57604051631e4fbdf760e01b815260006004820152602401610949565b610c848161183f565b6115fb611613565b6000805461ffff191661ffff92909216919091179055565b336116457f9016d09d72d40fdae2fd8ceac6b6234c7706214fd39c1cd1e609a0528c199300546001600160a01b031690565b6001600160a01b03161461137e5760405163118cdaa760e01b8152336004820152602401610949565b6116766118b0565b610c84816118f9565b61137e6118b0565b306001600160a01b037f000000000000000000000000000000000000000000000000000000000000000016148061170e57507f00000000000000000000000000000000000000000000000000000000000000006001600160a01b0316611702600080516020611f4c833981519152546001600160a01b031690565b6001600160a01b031614155b1561137e5760405163703e46dd60e11b815260040160405180910390fd5b610c84611613565b816001600160a01b03166352d1902d6040518163ffffffff1660e01b8152600401602060405180830381865afa92505050801561178e575060408051601f3d908101601f1916820190925261178b91810190611e99565b60015b6117b657604051634c9c8ce360e01b81526001600160a01b0383166004820152602401610949565b600080516020611f4c83398151915281146117e757604051632a87526960e21b815260048101829052602401610949565b6117f18383611901565b505050565b306001600160a01b037f0000000000000000000000000000000000000000000000000000000000000000161461137e5760405163703e46dd60e11b815260040160405180910390fd5b7f9016d09d72d40fdae2fd8ceac6b6234c7706214fd39c1cd1e609a0528c19930080546001600160a01b031981166001600160a01b03848116918217845560405192169182907f8be0079c531659141344cd1fd0a4f28419497f9722a3daafe3b4186f6b6457e090600090a3505050565b7ff0c57e16840df040f15088dc2f81fe391c3923bec73e23a9662efc9c229c6a0054600160401b900460ff1661137e57604051631afcd79f60e31b815260040160405180910390fd5b6115c06118b0565b61190a82611957565b6040516001600160a01b038316907fbc7cd75a20ee27fd9adebab32041f755214dbc6bffa90cc0225b39da2e5c2d3b90600090a280511561194f576117f182826119bc565b6111d1611a32565b806001600160a01b03163b60000361198d57604051634c9c8ce360e01b81526001600160a01b0382166004820152602401610949565b600080516020611f4c83398151915280546001600160a01b0319166001600160a01b0392909216919091179055565b6060600080846001600160a01b0316846040516119d99190611f2f565b600060405180830381855af49150503d8060008114611a14576040519150601f19603f3d011682016040523d82523d6000602084013e611a19565b606091505b5091509150611a29858383611a51565b95945050505050565b341561137e5760405163b398979f60e01b815260040160405180910390fd5b606082611a61576107bd82611aa8565b8151158015611a7857506001600160a01b0384163b155b15611aa157604051639996b31560e01b81526001600160a01b0385166004820152602401610949565b5092915050565b805115611ab85780518082602001fd5b604051630a12f52160e11b815260040160405180910390fd5b803561ffff81168114611ae357600080fd5b919050565b600060208284031215611afa57600080fd5b6107c582611ad1565b600060208284031215611b1557600080fd5b5035919050565b60058110610c8457600080fd5b600060208284031215611b3b57600080fd5b81356107c581611b1c565b80356001600160a01b0381168114611ae357600080fd5b60008060408385031215611b7057600080fd5b611b7983611b46565b9150611b8760208401611b46565b90509250929050565b634e487b7160e01b600052604160045260246000fd5b60008060408385031215611bb957600080fd5b611bc283611b46565b9150602083013567ffffffffffffffff80821115611bdf57600080fd5b818501915085601f830112611bf357600080fd5b813581811115611c0557611c05611b90565b604051601f8201601f19908116603f01168101908382118183101715611c2d57611c2d611b90565b81604052828152886020848701011115611c4657600080fd5b8260208601602083013760006020848301015280955050505050509250929050565b60008060408385031215611c7b57600080fd5b611c8483611b46565b9150611b8760208401611ad1565b600060208284031215611ca457600080fd5b6107c582611b46565b604080825283519082018190526000906020906060840190828701845b82811015611cef5781516001600160a01b031684529284019290840190600101611cca565b50505061ffff9490941692019190915250919050565b60005b83811015611d20578181015183820152602001611d08565b50506000910152565b6020815260008251806020840152611d48816040850160208701611d05565b601f01601f19169190910160400192915050565b634e487b7160e01b600052601260045260246000fd5b600082611d8157611d81611d5c565b500690565b634e487b7160e01b600052601160045260246000fd5b8082018082111561088b5761088b611d86565b634e487b7160e01b600052602160045260246000fd5b600061ffff80841680611dda57611dda611d5c565b92169190910692915050565b61ffff818116838216019080821115611aa157611aa1611d86565b61ffff828116828216039080821115611aa157611aa1611d86565b8181038181111561088b5761088b611d86565b600082611e3e57611e3e611d5c565b500490565b808202811582820484141761088b5761088b611d86565b600060208284031215611e6c57600080fd5b815160ff811681146107c557600080fd5b60ff8181168382160290811690818114611aa157611aa1611d86565b600060208284031215611eab57600080fd5b5051919050565b6001600160a01b039384168152919092166020820152604081019190915260600190565b600060208284031215611ee857600080fd5b815180151581146107c557600080fd5b600061ffff808316818103611f0f57611f0f611d86565b6001019392505050565b634e487b7160e01b600052603260045260246000fd5b60008251611f41818460208701611d05565b919091019291505056fe360894a13ba1a3210667c828492db98dca3e2076cc3735a920a3ca505d382bbca2646970667358221220ddbf9f3aeb479ed7ec68d9c6214bcc7c6c8c44ebca1eddda6ea817acffa41cca64736f6c63430008150033",
    "linkReferences": {}
  },
  "methodIdentifiers": {
    "UPGRADE_INTERFACE_VERSION()": "ad3cb1cc",
    "allOwners()": "a12a52dc",
    "buyLand()": "469327dd",
    "buyProps(uint8)": "12be6463",
    "buyPropsWithFMP(uint8)": "29b2e1c7",
    "claimReward()": "b88a802f",
    "fmp()": "37eacbe7",
    "getLand(uint16)": "0099f16d",
    "getLandPrice(uint16)": "06eb75e4",
    "getPlayer(address)": "5c12cd4b",
    "getPool()": "026b1d5f",
    "getRandomNumber(uint8)": "0651f005",
    "initialize(address,address)": "485cc955",
    "lands(uint16)": "eacbccc1",
    "maxLands()": "e5123c4d",
    "move()": "3ec48a2e",
    "owner()": "8da5cb5b",
    "players(address)": "e2eb41ff",
    "pool()": "16f0115b",
    "proxiableUUID()": "52d1902d",
    "renounceOwnership()": "715018a6",
    "setDecreaseAmount(uint256)": "39d6b9b8",
    "setDecreaseInterval(uint256)": "035e75c1",
    "setIncreaseAmount(uint256)": "d5a2bab9",
    "setLowestPrice(uint256)": "780d567f",
    "setMaxLands(uint16)": "fddc18e2",
    "setPosition(address,uint16)": "5530dfb6",
    "setPropPriceEth(uint256)": "0f6ed8ea",
    "transferOwnership(address)": "f2fde38b",
    "updatePool(uint256)": "51eb05a6",
    "upgradeToAndCall(address,bytes)": "4f1ef286",
    "withdraw()": "3ccfd60b",
    "withdrawFMP()": "6746e595"
  },
  "id": 50
}